:020000040000FA
:04000000A32CA32C5E
:080008002000F0190B1D19285E
:1000100018101118B00AF0118B127C247024F018FB
:1000200045237019342370185423111C8228111091
:100030007F281110F019B00AF01D9724F208031D53
:10004000F203911A3D28701E7F281810960197011F
:10005000B001953084000030850060308000FF30B2
:1000600095000B110B1D322878089501800018149B
:100070000B118B167012F0157F282017230019081A
:100080002000F100F012F208031D6628F301710848
:10009000AA3A031D51287109982073140B30F200FD
:1000A0007F287108553A031D5B2871099820F314C5
:1000B0000B30F2007F287108A53A031D6128F01665
:1000C0007F2871085A3A03199E207F280530F200D4
:1000D00073186E287108502198207F28731977288B
:1000E0007108F40071099820200073157F287108A9
:1000F000602123009309200052219820F40AA10ACC
:10010000200020141814090077080739820760348A
:100110006134623463346434653466346734770E32
:10012000033982071F343F347F34FF34F01E080048
:10013000111E982823009A00200008000130502149
:1001400098204E2198204E2198204E2198204E2113
:1001500098204E2198204E2198204E2198204E2103
:1001600098204E2198204E2198204E2198204E21F3
:1001700098204E2198204E219820323050219820EE
:100180004E2198204E2198204E2198204E219820D3
:100190001230502198204E21982008000430761A01
:1001A0000530F61A0630761B07309C000800200048
:1001B000C0308B00013098000030990000309B0067
:1001C00000309C0000309E0000309F002100FE3077
:1001D0008C00C3308E0001309100003092006530F9
:1001E0009500103096001C30970070309900003058
:1001F0009D00A0309E00220000309100003092004F
:1002000000309300003094000030960000309700DA
:10021000003098000030990000309A0000309B00B8
:1002200084309D00230000308C0001308E000030AF
:1002300095000030960008309B0002309C00903002
:100240009D0024309E0008309F00240003308C0065
:1002500000308E0000309200003093000030940097
:100260000030950000309600003097002500910185
:100270000C3093000030940000309500013096005F
:10028000910127000030910000309200200008000A
:100290009601970101309800111008002300110AFF
:1002A00023009100230095185329930115139513EA
:1002B000151413082000080023009300910A6429F4
:1002C0002300930074089100951864291513951361
:1002D00015158B1F71298B138B1B6B2971218B17A4
:1002E000080055309600AA309600951415119518FF
:1002F000772920000800230E3039A500A40CA30C98
:10030000A40C230C250091002000250825001312C1
:100310009312930420000800C4016430C500C22178
:10032000C31BC30128305021D2004E21D300D4106A
:10033000D21BD4147F30D20543085202031C54143C
:1003400053084302031C5410D41CAB2954180E1636
:10035000541C0E12080054180E12541C0E160800DD
:1003600024305021CB00A013CB1BA0170730CB05A6
:100370004B08C4004E21CC00C5004E21CD004E21BB
:10038000CE0008006C08C6006D08C70019222A08B4
:10039000C5002B08C400342208004C0843024B0857
:1003A000423B031C08004C08C3004B08C200080075
:1003B00043084C02C3004208031C420A4B02C2001D
:1003C000080036305021E900C900DE01123050210A
:1003D000E000DA00A8004E21DF00D900A9000310D8
:1003E000E00DDF0DDE0DC90BEF2908006908C9001B
:1003F0005E08DB005F08DC006008DD000310DB0C3A
:10040000DC0CDD0CC90BFE290800F621D41E0C2AD9
:100410005D08A8005C08A9005A08E0075908DF3DFC
:100420000301DE3D5D08E0025C08DF3B5B08DE3B6C
:100430000800C001C101C201C3011030CA00C50DCE
:10044000C40D031C2B2A4708C3074608C23D0301FD
:10045000C13D0301C03DCA0B2E2A08000310C30D85
:10046000C20DC10DC00D1F2A440845040319080020
:10047000C601C7010030850040308400C801000D6E
:10048000C70D45086B22800D0430CA000730C90033
:100490006522001C4D2A6B224E2A7122800DC90B49
:1004A000482A4A0B542A602A840A65228403001CC5
:1004B0005B2A6B225C2A7122840A800DCA0B462AB1
:1004C00000180800450871220800000DC70DC60D70
:1004D000C80D45080800C7024408C63B0301C83BD5
:1004E0000800C7074408C63D0301C83D08000230A4
:1004F0005021BA004E21BB004E21D0004E21D10028
:100500004E21E3004E21E40032305021E5004E211F
:10051000E6004E21E7004E21E80010305021EA00AD
:100520004E21EB0036305021E9000C305021A6005E
:100530004E21A7004E21AA004E21AB000800A301C6
:10054000A4017B210E162B233C230830F400320833
:10055000602131085C2135085C2134085C21772258
:100560003A08B2023B08B13B5008B5025108B43B0F
:100570003208C5003108C4001F30C7007130C60002
:1005800019223508C5003408C4003422E630C600FC
:100590006630C7004308C7024208C63B1030F4006B
:1005A0004708602146085C213208C5003108C400B4
:1005B00019223508C5003408C4003422D030C302E3
:1005C0006430C23B0C30F4000030F71B4308DA0003
:1005D000A60060211030F71B4208D900A7005C215B
:1005E00024233208C5003108C400C7011030C600FA
:1005F00019222608C5002708C40034220E30F40052
:100600004308602142085C210130F4000330F5000A
:1006100060210E12A101A10A08000E162B233C2313
:100620004D230130F4000130F500602132085C21D7
:1006300031085C2135085C2134085C2138085C21D4
:1006400037085C210E1208001230F40028086021DF
:1006500029085C210800F3308E0504308E047015E3
:1006600070167019312B08001608B6001708B5006F
:100670003008B40070110800F3308E0508308E0485
:10068000F0147016F018422B08001608B300170873
:10069000B2003008B100F0100800F3308E0570147D
:1006A00070167018512B08001608B9001708B8000A
:1006B0003008B70070100800F01E080037089620B8
:1006C0003808962031089620320896203408962063
:1006D00035089620550896205608962057089620EB
:1006E00058089620590896205A0896205C089620AB
:1006F0005D089620A01E842BFE011B08FF00013020
:10070000FF070301FE3D8F2B25001135FF00FE0181
:10071000FE0DFF35FE0D130E0339FF0420007E0889
:1007200096207F0896202D0896202C089620FF30D2
:10073000541F003096205413F012080020132B236E
:100740003C234D2308003708E1003808E20054112B
:100750006308E2026408E13B0318B52B5415E20973
:10076000E1090130E2070301E13D6508C5006608C3
:10077000C4006208C7006108C60019223A083202A4
:10078000D6003B08313BD5000318C92BD501D60153
:10079000D82B541DD02B4208D6074108D53DD82B65
:1007A0004208D6024108D53B0318D82BD501D60103
:1007B000D4122A08C3002B08C200C101C001C40121
:1007C0000530C5003422430856024208553B031841
:1007D000D4166708C5006808C4006208C70061082D
:1007E000C600192250083502D8005108343BD70002
:1007F0000318FD2BD701D8010C2C541D042C4208E2
:10080000D8074108D73D0C2C4208D8024108D73BF5
:1008100003180C2CD701D801F71F2A2C57085804AD
:10082000031D182C0C305021DA004E21D900322C37
:100830005608C5005508C4006A08C7006B08C60002
:1008400019225808C5005708C4003422D030C3020A
:100850006430C23B0030F71B4308DA001030F71B4E
:100860004208D900D41E9224D41A05225608C50085
:100870005508C4000030C7001030C60019222608F1
:10088000EE002708EF00EF0CEE0CEF0CEE0CEF0C77
:10089000EE0CEF0CEE0CEF0CEE0C0730EF056E08D3
:1008A0002602EE006F08273BEF0054126E08280264
:1008B0006F08293B031C54162808541A6E08F71FAA
:1008C0000030AC00C5002908541A6F08F71F10301B
:1008D000AD00C40034224308ED004208EC000800DB
:1008E0000430C900C908031908000310960D970DBC
:1008F000B00DC90B752C08008501A03084001608C6
:100900008007840A1708803D840A3008803D840AE5
:100910000301803D80080319D415D41D0800242349
:10092000D411541721000130A300200008008501D4
:10093000A230840001308007840A0301803D8008D2
:100940000319D415080021007030990020008C0193
:100950008E01D7208C018E01203084008501030197
:100960001A007F30040503198416F03005050319B9
:10097000AF2CD720A10AA0144821C0308B009224AC
:10098000E1214D239E23201CC32C64002010233022
:100990005021F6002A305021F7008420F800CE20A4
:1009A000A01276087839031DA01601305021F500F9
:1009B000A01CE82C0E080239031DE82CA108031D19
:1009C0006C2D0D230030A3000030A4007B212015E6
:1009D000A010751C6C2DF518FA2C0E080239031D99
:1009E000F72C2019C32CA20AA21B9F22652D2011CF
:1009F000A201C32C0E080239031D052DA20AA21F55
:100A00006C2DA01D9F22A015072DA201A011A010E2
:100A10008F202105031DC32C9E23201BC32C77226E
:100A2000A3236D086C04031D192DC301C201B0215D
:100A30001C2DB021C221CD21A01BD8214E08C307F7
:100A40004D08C23DA01A362D4208A4004308A30059
:100A50002408FC3903195E2DFF30A3000330A400E5
:100A60007B21FE309B008C215C23C32CC208031D1C
:100A7000532D4308FE390319482D013025009100FC
:100A800013129312200043039B008C215C23C32C80
:100A900064302500910013129312200063309B00F4
:100AA0008C215C23C32C013025009100131293127A
:100AB0002000FF309B008C215C23C32C7B21200075
:100AC000FF309B008C215C23C32CA01A482D4E08BC
:100AD000A3004D08A4005E2D0030A3000030A40048
:100AE0005E2D210011309D000630C900772DC90B05
:100AF000762D9D146300000011131B08FF001C08D5
:060B0000FE0020000800C9
:020000040001F9
:02000E00A2CF7F
:02001000FFDE11
:10E000000000000000000000000000000000000010
:10E010000000000000000000000000000000000000
:10E0200000000000000000000000000000000000F0
:0CE03000000000000000000000000000E4
:10E0400000000000000000000000000000000000D0
:10E0500000000000000000000000000000000000C0
:0EE0600000000000660001000D00010002003B
:00000001FF
