:020000040000FA
:04000000A82CA82C54
:0800080020000E1809280E1457
:100010000A280E10F0190B1D1E2818101118B00A0E
:10002000F0118B1281247524F0184A23701939239A
:1000300070185923111C8728111084281110F019E9
:10004000B00AF01D9C24F208031DF203911A422805
:10005000701E8428181096019701B0019530840015
:100060000030850060308000FF3095000B110B1DC3
:10007000372878089501800018140B118B16701220
:10008000F01584282017230019082000F100F01231
:10009000F208031D6B28F3017108AA3A031D5628C4
:1000A00071099D2073140B30F20084287108553AB1
:1000B000031D602871099D20F3140B30F200842881
:1000C0007108A53A031D6628F016842871085A3A6B
:1000D0000319A32084280530F200731873287108CF
:1000E00055219D20842873197C287108F40071091A
:1000F0009D20200073158428710865212300930931
:10010000200057219D20F40AA10A20002014181471
:100110000900770807398207603461346234633438
:100120006434653466346734770E033982071F34CC
:100130003F347F34FF34F01E0800111E9D28230039
:100140009A0020000800013055219D2053219D2058
:1001500053219D2053219D2053219D2053219D20DB
:1001600053219D2053219D2053219D2053219D20CB
:1001700053219D2053219D2053219D2053219D20BB
:1001800053219D20323055219D2053219D20532104
:100190009D2053219D2053219D20123055219D20CB
:1001A00053219D2008000430761A0530F61A0630D7
:1001B000761B07309C0008002000C0308B00013007
:1001C00098000030990000309B0000309C00003007
:1001D0009E0000309F002100FE308C00C3308E0056
:1001E000013091000030920065309500103096008B
:1001F0001C3097007030990000309D00A0309E00A8
:100200002200003091000030920000309300003056
:1002100094000030960000309700003098000030C5
:10022000990000309A0000309B0084309D0023002C
:1002300000308C0001308E000030950000309600B8
:1002400008309B0002309C0090309D0024309E00BE
:1002500008309F00240003308C0000308E000030F6
:100260009200003093000030940000309500003080
:10027000960000309700250091010C30930000306B
:100280009400003095000130960091012700003065
:100290009100003092002000080096019701013083
:1002A0009800111008002300110A23009100230078
:1002B0009518582993011513951315141308200048
:1002C000080023009300910A692923009300740811
:1002D0009100951869291513951315158B1F76290B
:1002E0008B138B1B702976218B17080055309600D5
:1002F000AA3096009514151195187C292000080045
:10030000230E3039A500A40CA30CA40C230C25004B
:100310009100200025082500131293129304200059
:100320000800C4016430C500C721C31BC3012830C5
:100330005521D2005321D300D410D21BD4147F30C6
:10034000D20543085202031C541453084302031CF1
:100350005410D41CB02954180E16541C0E12080048
:1003600054180E12541C0E16080024305521CB00D0
:10037000A013CB1BA0170730CB054B08C40053219B
:10038000CC00C5005321CD005321CE0008006C08DD
:10039000C6006D08C7001E222A08C5002B08C4002D
:1003A000392208004C0843024B08423B031C08005A
:1003B0004C08C3004B08C200080043084C02C300AD
:1003C0004208031C420A4B02C20008003630552185
:1003D000E900C900DE0112305521E000DA00A80072
:1003E0005321DF00D900A9000310E00DDF0DDE0D61
:1003F000C90BF42908006908C9005E08DB005F0822
:10040000DC006008DD000310DB0CDC0CDD0CC90B2C
:10041000032A0800FB21D41E112A5D08A8005C08ED
:10042000A9005A08E0075908DF3D0301DE3D5D08D9
:10043000E0025C08DF3B5B08DE3B0800C001C10155
:10044000C201C3011030CA00C50DC40D031C302AFF
:100450004708C3074608C23D0301C13D0301C03D33
:10046000CA0B332A08000310C30DC20DC10DC00D05
:10047000242A4408450403190800C601C7010030B6
:10048000850040308400C801000DC70D450870226A
:10049000800D0430CA000730C9006A22001C522AAD
:1004A0007022532A7622800DC90B4D2A4A0B592AF5
:1004B000652A840A6A228403001C602A7022612A49
:1004C0007622840A800DCA0B4B2A001808004508C2
:1004D00076220800000DC70DC60DC80D450808009E
:1004E000C7024408C63B0301C83B0800C7074408CD
:1004F000C63D0301C83D080002305521BA00532112
:10050000BB005321D0005321D1005321E3005321DC
:10051000E40032305521E5005321E6005321E70085
:100520005321E80010305521EA005321EB0036300A
:100530005521E9000C305521A6005321A700532175
:10054000AA005321AB000800A301A40180210E16CC
:10055000302341230830F40032086521310861213D
:1005600035086121340861217C223A08B2023B0837
:10057000B13B5008B5025108B43B3208C500310800
:10058000C4001F30C7007130C6001E223508C500E8
:100590003408C4003922E630C6006630C70043087C
:1005A000C7024208C63B1030F400470865214608E0
:1005B00061213208C5003108C4001E223508C5007B
:1005C0003408C4003922D030C3026430C23B0C303E
:1005D000F4000030F71B4308DA00A6006521103054
:1005E000F71B4208D900A700612129233208C50062
:1005F0003108C400C7011030C6001E222608C500FD
:100600002708C40039220E30F4004308652142084F
:1006100061210130F4000330F50065210E12A101C3
:10062000A10A08000E163023412352230130F400A2
:100630000130F5006521320861213108612135085A
:1006400061213408612138086121370861210E12C7
:1006500008001230F40028086521290861210800EB
:10066000F3308E0504308E04701570167019362B19
:1006700008001608B6001708B5003008B40070115D
:100680000800F3308E0508308E04F0147016F01850
:10069000472B08001608B3001708B2003008B10055
:1006A000F0100800F3308E05701470167018562B79
:1006B00008001608B9001708B8003008B700701015
:1006C0000800F01E080037089B2038089B203108DE
:1006D0009B2032089B2034089B2035089B2055081E
:1006E0009B2056089B2057089B2058089B205908A0
:1006F0009B205A089B205C089B205D089B20A01E25
:10070000892BFE011B08FF000130FF070301FE3D9E
:10071000942B25001135FF00FE01FE0DFF35FE0D67
:10072000130E0339FF0420007E089B207F089B20C6
:100730002D089B202C089B20FF30541F00309B204D
:100740005413F012080020133023412352230800D1
:100750003708E1003808E20054116308E202640837
:10076000E13B0318BA2B5415E209E1090130E20715
:100770000301E13D6508C5006608C4006208C700C2
:100780006108C6001E223A083202D6003B08313BFF
:10079000D5000318CE2BD501D601DD2B541DD52B4A
:1007A0004208D6074108D53DDD2B4208D602410854
:1007B000D53B0318DD2BD501D601D4122A08C3007E
:1007C0002B08C200C101C001C4010530C500392297
:1007D000430856024208553B0318D4166708C50063
:1007E0006808C4006208C7006108C6001E225008DD
:1007F0003502D8005108343BD7000318022CD7012A
:10080000D801112C541D092C4208D8074108D73DA6
:10081000112C4208D8024108D73B0318112CD701EC
:10082000D801F71F2F2C57085804031D1D2C0C301E
:100830005521DA005321D900372C5608C500550838
:10084000C4006A08C7006B08C6001E225808C5000D
:100850005708C4003922D030C3026430C23B003094
:10086000F71B4308DA001030F71B4208D900D41EEA
:100870009724D41A0A225608C5005508C40000302F
:10088000C7001030C6001E222608EE002708EF0021
:10089000EF0CEE0CEF0CEE0CEF0CEE0CEF0CEE0C84
:1008A000EF0CEE0C0730EF056E082602EE006F0825
:1008B000273BEF0054126E0828026F08293B031CE7
:1008C00054162808541A6E08F71F0030AC00C500F3
:1008D0002908541A6F08F71F1030AD00C4003922E0
:1008E0004308ED004208EC0008000430C900C908C4
:1008F000031908000310960D970DB00DC90B7A2C43
:1009000008008501A030840016088007840A1708B3
:10091000803D840A3008803D840A0301803D8008C0
:100920000319D415D41D08002923D411541721000C
:100930000130A300200008008501A23084000130AE
:100940008007840A0301803D80080319D41508003C
:1009500021007030990020008C018E01DC208C0178
:100960008E0120308400850103011A007F300405C8
:1009700003198416F03005050319B42CDC20A10AF4
:10098000A0144D21C0308B009724E6215223A323CD
:10099000201CC82C6400201023305521F6002A307A
:1009A0005521F7008920F800D320A0127608783965
:1009B000031DA01601305521F500A01CED2C0E08DA
:1009C0000239031DED2CA108031D712D12230030E7
:1009D000A3000030A40080212015A010751C712DEB
:1009E000F518FF2C0E080239031DFC2C2019C82C09
:1009F000A20AA21BA4226A2D2011A201C82C0E0853
:100A00000239031D0A2DA20AA21F712DA01DA422C6
:100A1000A0150C2DA201A011A01094202105031DEA
:100A2000C82CA323201BC82C7C22A8236D086C048F
:100A3000031D1E2DC301C201B521212DB521C721E2
:100A4000D221A01BDD214E08C3074D08C23DA01ACC
:100A50003B2D4208A4004308A3002408FC390319D5
:100A6000632DFF30A3000330A4008021FE309B00E3
:100A700091216123C82CC208031D582D4308FE395B
:100A800003194D2D013025009100131293122000FF
:100A900043039B0091216123C82C64302500910001
:100AA00013129312200063309B0091216123C82C04
:100AB000013025009100131293122000FF309B009B
:100AC00091216123C82C80212000FF309B009121BF
:100AD0006123C82CA01A4D2D4E08A3004D08A40078
:100AE000632D0030A3000030A400632D21001130DD
:100AF0009D000630C9007C2DC90B7B2D9D14630021
:100B0000000011131B08FF001C08FE002000080055
:020000040001F9
:02000E00A20F3F
:02001000FF1ED1
:10E000000000000000000000000000000000000010
:10E010000000000000000000000000000000000000
:10E0200000000000000000000000000000000000F0
:0CE03000000000000000000000000000E4
:10E0400000000000000000000000000000000000D0
:10E0500000000000000000000000000000000000C0
:04E0600000000000BC
:0AE06400660001000D00010002003B
:00000001FF
